{
  "contractName": "Auction",
  "abi": [
    {
      "inputs": [],
      "stateMutability": "nonpayable",
      "type": "constructor"
    },
    {
      "inputs": [
        {
          "internalType": "contract Item",
          "name": "_item",
          "type": "address"
        },
        {
          "internalType": "uint256",
          "name": "_timeLimit",
          "type": "uint256"
        }
      ],
      "name": "putItemOnSale",
      "outputs": [
        {
          "internalType": "bool",
          "name": "",
          "type": "bool"
        }
      ],
      "stateMutability": "nonpayable",
      "type": "function"
    },
    {
      "inputs": [],
      "name": "whatsOnSale",
      "outputs": [
        {
          "internalType": "contract Item",
          "name": "",
          "type": "address"
        }
      ],
      "stateMutability": "view",
      "type": "function",
      "constant": true
    },
    {
      "inputs": [],
      "name": "bid",
      "outputs": [
        {
          "internalType": "bool",
          "name": "",
          "type": "bool"
        }
      ],
      "stateMutability": "payable",
      "type": "function",
      "payable": true
    },
    {
      "inputs": [],
      "name": "getBalance",
      "outputs": [
        {
          "internalType": "uint256",
          "name": "",
          "type": "uint256"
        }
      ],
      "stateMutability": "view",
      "type": "function",
      "constant": true
    },
    {
      "inputs": [],
      "name": "endAuction",
      "outputs": [
        {
          "internalType": "bool",
          "name": "",
          "type": "bool"
        }
      ],
      "stateMutability": "nonpayable",
      "type": "function"
    }
  ],
  "bytecode": "0x608060405234801561001057600080fd5b506000600360016101000a81548160ff021916908315150217905550610a508061003b6000396000f3fe60806040526004361061004a5760003560e01c8063014b496e1461004f57806312065fe0146100c25780631998aeef146100ed5780632cd966021461010f578063fe67a54b14610166575b600080fd5b34801561005b57600080fd5b506100a86004803603604081101561007257600080fd5b81019080803573ffffffffffffffffffffffffffffffffffffffff16906020019092919080359060200190929190505050610195565b604051808215151515815260200191505060405180910390f35b3480156100ce57600080fd5b506100d7610244565b6040518082815260200191505060405180910390f35b6100f561024c565b604051808215151515815260200191505060405180910390f35b34801561011b57600080fd5b5061012461064f565b604051808273ffffffffffffffffffffffffffffffffffffffff1673ffffffffffffffffffffffffffffffffffffffff16815260200191505060405180910390f35b34801561017257600080fd5b5061017b610693565b604051808215151515815260200191505060405180910390f35b6000600360019054906101000a900460ff16156101b5576000905061023e565b42600281905550826000806101000a81548173ffffffffffffffffffffffffffffffffffffffff021916908373ffffffffffffffffffffffffffffffffffffffff1602179055506001600360016101000a81548160ff0219169083151502179055506000600360006101000a81548160ff02191690831515021790555081600181905550600190505b92915050565b600047905090565b6000600360019054906101000a900460ff16801561030a57506000809054906101000a900473ffffffffffffffffffffffffffffffffffffffff1673ffffffffffffffffffffffffffffffffffffffff1663099a019d6040518163ffffffff1660e01b815260040160206040518083038186803b1580156102cc57600080fd5b505afa1580156102e0573d6000803e3d6000fd5b505050506040513d60208110156102f657600080fd5b810190808051906020019092919050505034115b15610600576001600360006101000a81548160ff0219169083151502179055506000809054906101000a900473ffffffffffffffffffffffffffffffffffffffff1673ffffffffffffffffffffffffffffffffffffffff1663c41096486040518163ffffffff1660e01b815260040160206040518083038186803b15801561039157600080fd5b505afa1580156103a5573d6000803e3d6000fd5b505050506040513d60208110156103bb57600080fd5b810190808051906020019092919050505073ffffffffffffffffffffffffffffffffffffffff166108fc6000809054906101000a900473ffffffffffffffffffffffffffffffffffffffff1673ffffffffffffffffffffffffffffffffffffffff1663099a019d6040518163ffffffff1660e01b815260040160206040518083038186803b15801561044c57600080fd5b505afa158015610460573d6000803e3d6000fd5b505050506040513d602081101561047657600080fd5b81019080805190602001909291905050509081150290604051600060405180830381858888f193505050501580156104b2573d6000803e3d6000fd5b506000809054906101000a900473ffffffffffffffffffffffffffffffffffffffff1673ffffffffffffffffffffffffffffffffffffffff1663f2d1c880336040518263ffffffff1660e01b8152600401808273ffffffffffffffffffffffffffffffffffffffff1673ffffffffffffffffffffffffffffffffffffffff168152602001915050600060405180830381600087803b15801561055357600080fd5b505af1158015610567573d6000803e3d6000fd5b505050506000809054906101000a900473ffffffffffffffffffffffffffffffffffffffff1673ffffffffffffffffffffffffffffffffffffffff1663cef55b9a346040518263ffffffff1660e01b815260040180828152602001915050600060405180830381600087803b1580156105df57600080fd5b505af11580156105f3573d6000803e3d6000fd5b505050506001905061064c565b3373ffffffffffffffffffffffffffffffffffffffff166108fc349081150290604051600060405180830381858888f19350505050158015610646573d6000803e3d6000fd5b50600090505b90565b6000600360019054906101000a900460ff161561068f576000809054906101000a900473ffffffffffffffffffffffffffffffffffffffff169050610690565b5b90565b6000600360009054906101000a900460ff16801561078d57506000809054906101000a900473ffffffffffffffffffffffffffffffffffffffff1673ffffffffffffffffffffffffffffffffffffffff1663893d20e86040518163ffffffff1660e01b815260040160206040518083038186803b15801561071357600080fd5b505afa158015610727573d6000803e3d6000fd5b505050506040513d602081101561073d57600080fd5b810190808051906020019092919050505073ffffffffffffffffffffffffffffffffffffffff163373ffffffffffffffffffffffffffffffffffffffff16148061078c57506001546002540142115b5b156109f7576000809054906101000a900473ffffffffffffffffffffffffffffffffffffffff1673ffffffffffffffffffffffffffffffffffffffff1663893d20e86040518163ffffffff1660e01b815260040160206040518083038186803b1580156107f957600080fd5b505afa15801561080d573d6000803e3d6000fd5b505050506040513d602081101561082357600080fd5b810190808051906020019092919050505073ffffffffffffffffffffffffffffffffffffffff166108fc479081150290604051600060405180830381858888f19350505050158015610879573d6000803e3d6000fd5b506000809054906101000a900473ffffffffffffffffffffffffffffffffffffffff1673ffffffffffffffffffffffffffffffffffffffff166394b6f9d46000809054906101000a900473ffffffffffffffffffffffffffffffffffffffff1673ffffffffffffffffffffffffffffffffffffffff1663c41096486040518163ffffffff1660e01b815260040160206040518083038186803b15801561091e57600080fd5b505afa158015610932573d6000803e3d6000fd5b505050506040513d602081101561094857600080fd5b81019080805190602001909291905050506040518263ffffffff1660e01b8152600401808273ffffffffffffffffffffffffffffffffffffffff1673ffffffffffffffffffffffffffffffffffffffff168152602001915050600060405180830381600087803b1580156109bb57600080fd5b505af11580156109cf573d6000803e3d6000fd5b505050506000600360016101000a81548160ff02191690831515021790555060019050610a17565b6000600360016101000a81548160ff021916908315150217905550600090505b9056fea2646970667358221220141dbe40a52ec69f907e59c245156427ee58032f9ea57fcfcd71c6e034df581a64736f6c63430006020033",
  "source": "pragma solidity^0.6.1;\n\ncontract Item{\n    string name;\n    address payable public  owner;\n    address payable bidder;\n    uint Bid;\n\n    constructor(string memory _name, uint price) public{\n        owner = msg.sender;\n        bidder = owner;\n        Bid = price;\n        name = _name;\n\n    }\n\n    function getBid() public view returns(uint){\n        return Bid;\n    }\n\n\n    function setBid(uint _value) external{\n        Bid = _value;\n    }\n\n    function setBidder(address payable newBidder) external{\n        bidder = newBidder;\n    }\n\n    function getBidder() public view returns(address payable){\n        return bidder;\n    }\n\n    function getOwner() public view returns(address payable){\n        return owner;\n    }\n\n    function sell(address payable newOwner) public{\n        owner = newOwner;\n    }\n\n}\n\ncontract Auction{\n    Item internal itemOnSale;\n    uint timeLimit;\n    uint startTime;\n    bool initialBid; // true when at least one bid was made\n    bool selling;\n\n    constructor() public{\n        selling = false;\n    }\n\n    function putItemOnSale(Item _item, uint _timeLimit) public returns(bool){\n        if(selling) return false;\n\n        startTime = block.timestamp;\n        itemOnSale = _item;\n        selling = true;\n        initialBid = false;\n        timeLimit = _timeLimit;\n        return true;\n\n    }\n\n    function whatsOnSale() public view returns(Item){\n        if(selling) return itemOnSale;\n    }\n\n\n\n    function bid() public payable returns(bool){\n        if(selling && msg.value > itemOnSale.getBid()){\n            initialBid = true;\n            itemOnSale.getBidder().transfer(itemOnSale.getBid()); // return money back to previous bidder\n            // set new bidder\n            itemOnSale.setBidder(msg.sender) ;\n            itemOnSale.setBid(msg.value);\n            return true;\n        } else{\n            msg.sender.transfer(msg.value); // return the money\n            return false;\n        }\n    }\n\n    function getBalance() public view returns(uint){\n        return address(this).balance;\n    }\n\n    function endAuction() public returns(bool){ // Auction can be stopped by the owner anytime or by anyone when the limit is exceeded\n        if( initialBid && (msg.sender == itemOnSale.getOwner() || block.timestamp > startTime + timeLimit)){\n            itemOnSale.getOwner().transfer(address(this).balance);\n            itemOnSale.sell(itemOnSale.getBidder());\n            selling = false;\n            return true;\n        } selling = false;\n        return false;\n    }\n}\n",
  "sourcePath": "/home/luca/Projects/git/privateEthChain/truffleContracts/contracts/Licitation.sol",
  "compiler": {
    "name": "solc",
    "version": "0.6.2+commit.bacdbe57.Emscripten.clang"
  },
  "schemaVersion": "3.0.22",
  "updatedAt": "2020-02-10T17:13:51.673Z",
  "networkType": "ethereum",
  "devdoc": {
    "methods": {}
  },
  "userdoc": {
    "methods": {}
  }
}