{
  "contractName": "Item",
  "abi": [
    {
      "inputs": [
        {
          "internalType": "string",
          "name": "_name",
          "type": "string"
        },
        {
          "internalType": "uint256",
          "name": "price",
          "type": "uint256"
        }
      ],
      "stateMutability": "nonpayable",
      "type": "constructor"
    },
    {
      "inputs": [],
      "name": "owner",
      "outputs": [
        {
          "internalType": "address payable",
          "name": "",
          "type": "address"
        }
      ],
      "stateMutability": "view",
      "type": "function",
      "constant": true
    },
    {
      "inputs": [],
      "name": "getBid",
      "outputs": [
        {
          "internalType": "uint256",
          "name": "",
          "type": "uint256"
        }
      ],
      "stateMutability": "view",
      "type": "function",
      "constant": true
    },
    {
      "inputs": [
        {
          "internalType": "uint256",
          "name": "_value",
          "type": "uint256"
        }
      ],
      "name": "setBid",
      "outputs": [],
      "stateMutability": "nonpayable",
      "type": "function"
    },
    {
      "inputs": [
        {
          "internalType": "address payable",
          "name": "newBidder",
          "type": "address"
        }
      ],
      "name": "setBidder",
      "outputs": [],
      "stateMutability": "nonpayable",
      "type": "function"
    },
    {
      "inputs": [],
      "name": "getBidder",
      "outputs": [
        {
          "internalType": "address payable",
          "name": "",
          "type": "address"
        }
      ],
      "stateMutability": "view",
      "type": "function",
      "constant": true
    },
    {
      "inputs": [],
      "name": "getOwner",
      "outputs": [
        {
          "internalType": "address payable",
          "name": "",
          "type": "address"
        }
      ],
      "stateMutability": "view",
      "type": "function",
      "constant": true
    },
    {
      "inputs": [
        {
          "internalType": "address payable",
          "name": "newOwner",
          "type": "address"
        }
      ],
      "name": "sell",
      "outputs": [],
      "stateMutability": "nonpayable",
      "type": "function"
    }
  ],
  "bytecode": "0x608060405234801561001057600080fd5b506040516105f83803806105f88339818101604052604081101561003357600080fd5b810190808051604051939291908464010000000082111561005357600080fd5b8382019150602082018581111561006957600080fd5b825186600182028301116401000000008211171561008657600080fd5b8083526020830192505050908051906020019080838360005b838110156100ba57808201518184015260208101905061009f565b50505050905090810190601f1680156100e75780820380516001836020036101000a031916815260200191505b506040526020018051906020019092919050505033600160006101000a81548173ffffffffffffffffffffffffffffffffffffffff021916908373ffffffffffffffffffffffffffffffffffffffff160217905550600160009054906101000a900473ffffffffffffffffffffffffffffffffffffffff16600260006101000a81548173ffffffffffffffffffffffffffffffffffffffff021916908373ffffffffffffffffffffffffffffffffffffffff1602179055508060038190555081600090805190602001906101bc9291906101c4565b505050610269565b828054600181600116156101000203166002900490600052602060002090601f016020900481019282601f1061020557805160ff1916838001178555610233565b82800160010185558215610233579182015b82811115610232578251825591602001919060010190610217565b5b5090506102409190610244565b5090565b61026691905b8082111561026257600081600090555060010161024a565b5090565b90565b610380806102786000396000f3fe608060405234801561001057600080fd5b506004361061007d5760003560e01c806394b6f9d41161005b57806394b6f9d414610134578063c410964814610178578063cef55b9a146101c2578063f2d1c880146101f05761007d565b8063099a019d14610082578063893d20e8146100a05780638da5cb5b146100ea575b600080fd5b61008a610234565b6040518082815260200191505060405180910390f35b6100a861023e565b604051808273ffffffffffffffffffffffffffffffffffffffff1673ffffffffffffffffffffffffffffffffffffffff16815260200191505060405180910390f35b6100f2610268565b604051808273ffffffffffffffffffffffffffffffffffffffff1673ffffffffffffffffffffffffffffffffffffffff16815260200191505060405180910390f35b6101766004803603602081101561014a57600080fd5b81019080803573ffffffffffffffffffffffffffffffffffffffff16906020019092919050505061028e565b005b6101806102d2565b604051808273ffffffffffffffffffffffffffffffffffffffff1673ffffffffffffffffffffffffffffffffffffffff16815260200191505060405180910390f35b6101ee600480360360208110156101d857600080fd5b81019080803590602001909291905050506102fc565b005b6102326004803603602081101561020657600080fd5b81019080803573ffffffffffffffffffffffffffffffffffffffff169060200190929190505050610306565b005b6000600354905090565b6000600160009054906101000a900473ffffffffffffffffffffffffffffffffffffffff16905090565b600160009054906101000a900473ffffffffffffffffffffffffffffffffffffffff1681565b80600160006101000a81548173ffffffffffffffffffffffffffffffffffffffff021916908373ffffffffffffffffffffffffffffffffffffffff16021790555050565b6000600260009054906101000a900473ffffffffffffffffffffffffffffffffffffffff16905090565b8060038190555050565b80600260006101000a81548173ffffffffffffffffffffffffffffffffffffffff021916908373ffffffffffffffffffffffffffffffffffffffff1602179055505056fea26469706673582212207c63dd780ab55f967f933595668d90814e9029a19cea7317b341d1e31f6f330764736f6c63430006020033",
  "source": "pragma solidity^0.6.1;\n\ncontract Item{\n    string name;\n    address payable public  owner;\n    address payable bidder;\n    uint Bid;\n\n    constructor(string memory _name, uint price) public{\n        owner = msg.sender;\n        bidder = owner;\n        Bid = price;\n        name = _name;\n\n    }\n\n    function getBid() public view returns(uint){\n        return Bid;\n    }\n\n\n    function setBid(uint _value) external{\n        Bid = _value;\n    }\n\n    function setBidder(address payable newBidder) external{\n        bidder = newBidder;\n    }\n\n    function getBidder() public view returns(address payable){\n        return bidder;\n    }\n\n    function getOwner() public view returns(address payable){\n        return owner;\n    }\n\n    function sell(address payable newOwner) public{\n        owner = newOwner;\n    }\n\n}\n\ncontract Auction{\n    Item internal itemOnSale;\n    uint timeLimit;\n    uint startTime;\n    bool initialBid; // true when at least one bid was made\n    bool selling;\n\n    constructor() public{\n        selling = false;\n    }\n\n    function putItemOnSale(Item _item, uint _timeLimit) public returns(bool){\n        if(selling) return false;\n\n        startTime = block.timestamp;\n        itemOnSale = _item;\n        selling = true;\n        initialBid = false;\n        timeLimit = _timeLimit;\n        return true;\n\n    }\n\n    function whatsOnSale() public view returns(Item){\n        if(selling) return itemOnSale;\n    }\n\n\n\n    function bid() public payable returns(bool){\n        if(selling && msg.value > itemOnSale.getBid()){\n            initialBid = true;\n            itemOnSale.getBidder().transfer(itemOnSale.getBid()); // return money back to previous bidder\n            // set new bidder\n            itemOnSale.setBidder(msg.sender) ;\n            itemOnSale.setBid(msg.value);\n            return true;\n        } else{\n            msg.sender.transfer(msg.value); // return the money\n            return false;\n        }\n    }\n\n    function getBalance() public view returns(uint){\n        return address(this).balance;\n    }\n\n    function endAuction() public returns(bool){ // Auction can be stopped by the owner anytime or by anyone when the limit is exceeded\n        if( initialBid && (msg.sender == itemOnSale.getOwner() || block.timestamp > startTime + timeLimit)){\n            itemOnSale.getOwner().transfer(address(this).balance);\n            itemOnSale.sell(itemOnSale.getBidder());\n            selling = false;\n            return true;\n        } selling = false;\n        return false;\n    }\n}\n",
  "sourcePath": "/home/luca/Projects/git/privateEthChain/truffleContracts/contracts/Licitation.sol",
  "compiler": {
    "name": "solc",
    "version": "0.6.2+commit.bacdbe57.Emscripten.clang"
  },
  "schemaVersion": "3.0.22",
  "updatedAt": "2020-02-10T17:13:51.688Z",
  "networkType": "ethereum",
  "devdoc": {
    "methods": {}
  },
  "userdoc": {
    "methods": {}
  }
}